{
  "_format": "hh3-artifact-1",
  "contractName": "DepositBank",
  "sourceName": "contracts/DepositBank.sol",
  "abi": [
    {
      "inputs": [
        {
          "internalType": "address",
          "name": "_calculator",
          "type": "address"
        }
      ],
      "stateMutability": "nonpayable",
      "type": "constructor"
    },
    {
      "inputs": [
        {
          "internalType": "address",
          "name": "",
          "type": "address"
        }
      ],
      "name": "balances",
      "outputs": [
        {
          "internalType": "uint256",
          "name": "",
          "type": "uint256"
        }
      ],
      "stateMutability": "view",
      "type": "function"
    },
    {
      "inputs": [],
      "name": "calculator",
      "outputs": [
        {
          "internalType": "contract InterestCalculator",
          "name": "",
          "type": "address"
        }
      ],
      "stateMutability": "view",
      "type": "function"
    },
    {
      "inputs": [],
      "name": "deposit",
      "outputs": [],
      "stateMutability": "payable",
      "type": "function"
    },
    {
      "inputs": [],
      "name": "payInterest",
      "outputs": [],
      "stateMutability": "nonpayable",
      "type": "function"
    },
    {
      "inputs": [
        {
          "internalType": "uint256",
          "name": "amount",
          "type": "uint256"
        }
      ],
      "name": "withdraw",
      "outputs": [],
      "stateMutability": "nonpayable",
      "type": "function"
    },
    {
      "stateMutability": "payable",
      "type": "receive"
    }
  ],
  "bytecode": "0x6080604052348015600e575f5ffd5b506040516103ee3803806103ee833981016040819052602b91604f565b600180546001600160a01b0319166001600160a01b0392909216919091179055607a565b5f60208284031215605e575f5ffd5b81516001600160a01b03811681146073575f5ffd5b9392505050565b610367806100875f395ff3fe60806040526004361061004c575f3560e01c806327e235e3146100575780632e1a7d4d14610095578063a15a211c146100b6578063ce3e39c0146100ca578063d0e30db014610101575f5ffd5b3661005357005b5f5ffd5b348015610062575f5ffd5b506100826100713660046102ad565b5f6020819052908152604090205481565b6040519081526020015b60405180910390f35b3480156100a0575f5ffd5b506100b46100af3660046102da565b610109565b005b3480156100c1575f5ffd5b506100b46101aa565b3480156100d5575f5ffd5b506001546100e9906001600160a01b031681565b6040516001600160a01b03909116815260200161008c565b6100b4610205565b335f908152602081905260409020548111156101595760405162461bcd60e51b815260206004820152600a60248201526909cdee840cadcdeeaced60b31b60448201526064015b60405180910390fd5b335f9081526020819052604081208054839290610177908490610305565b9091555050604051339082156108fc029083905f818181858888f193505050501580156101a6573d5f5f3e3d5ffd5b5050565b600154604051633401f19160e21b81523360048201526001600160a01b039091169063d007c644906024015b5f604051808303815f87803b1580156101ed575f5ffd5b505af11580156101ff573d5f5f3e3d5ffd5b50505050565b5f34116102435760405162461bcd60e51b815260206004820152600c60248201526b16995c9bc819195c1bdcda5d60a21b6044820152606401610150565b335f908152602081905260408120805434929061026190849061031e565b9091555050600154335f8181526020819052604090819020549051633e4e8e6760e11b8152600481019290925260248201526001600160a01b0390911690637c9d1cce906044016101d6565b5f602082840312156102bd575f5ffd5b81356001600160a01b03811681146102d3575f5ffd5b9392505050565b5f602082840312156102ea575f5ffd5b5035919050565b634e487b7160e01b5f52601160045260245ffd5b81810381811115610318576103186102f1565b92915050565b80820180821115610318576103186102f156fea26469706673582212202308056118e4d6f5868b2eacd55ff2e92522cb89ced53b5cca9fa6f05f9ab3ed64736f6c634300081c0033",
  "linkReferences": {},
  "deployedLinkReferences": {},
  "immutableReferences": {},
  "inputSourceName": "project/contracts/DepositBank.sol",
  "buildInfoId": "solc-0_8_28-0aeac4d2fded6e99cb5390a22d93ce525594fe2f"
}