{
  "_format": "hh3-artifact-1",
  "contractName": "InterestCalculator",
  "sourceName": "contracts/InterestCalculator.sol",
  "abi": [
    {
      "inputs": [
        {
          "internalType": "uint256",
          "name": "_rate",
          "type": "uint256"
        }
      ],
      "stateMutability": "nonpayable",
      "type": "constructor"
    },
    {
      "inputs": [
        {
          "internalType": "address",
          "name": "user",
          "type": "address"
        },
        {
          "internalType": "uint256",
          "name": "balance",
          "type": "uint256"
        }
      ],
      "name": "accrueInterest",
      "outputs": [],
      "stateMutability": "nonpayable",
      "type": "function"
    },
    {
      "inputs": [],
      "name": "bank",
      "outputs": [
        {
          "internalType": "address",
          "name": "",
          "type": "address"
        }
      ],
      "stateMutability": "view",
      "type": "function"
    },
    {
      "inputs": [
        {
          "internalType": "address",
          "name": "",
          "type": "address"
        }
      ],
      "name": "interestAccrued",
      "outputs": [
        {
          "internalType": "uint256",
          "name": "",
          "type": "uint256"
        }
      ],
      "stateMutability": "view",
      "type": "function"
    },
    {
      "inputs": [],
      "name": "interestRate",
      "outputs": [
        {
          "internalType": "uint256",
          "name": "",
          "type": "uint256"
        }
      ],
      "stateMutability": "view",
      "type": "function"
    },
    {
      "inputs": [
        {
          "internalType": "address",
          "name": "user",
          "type": "address"
        }
      ],
      "name": "payInterest",
      "outputs": [],
      "stateMutability": "nonpayable",
      "type": "function"
    },
    {
      "inputs": [
        {
          "internalType": "address",
          "name": "_bank",
          "type": "address"
        }
      ],
      "name": "setBank",
      "outputs": [],
      "stateMutability": "nonpayable",
      "type": "function"
    },
    {
      "stateMutability": "payable",
      "type": "receive"
    }
  ],
  "bytecode": "0x6080604052348015600e575f5ffd5b50604051610430380380610430833981016040819052602b916032565b6001556048565b5f602082840312156041575f5ffd5b5051919050565b6103db806100555f395ff3fe608060405260043610610057575f3560e01c8063090d23b9146100625780633abb7a491461009f57806376cdb03b146100dd5780637c3a00fd146101135780637c9d1cce14610128578063d007c64414610147575f5ffd5b3661005e57005b5f5ffd5b34801561006d575f5ffd5b5061009d61007c3660046102fa565b5f80546001600160a01b0319166001600160a01b0392909216919091179055565b005b3480156100aa575f5ffd5b506100ca6100b93660046102fa565b60026020525f908152604090205481565b6040519081526020015b60405180910390f35b3480156100e8575f5ffd5b505f546100fb906001600160a01b031681565b6040516001600160a01b0390911681526020016100d4565b34801561011e575f5ffd5b506100ca60015481565b348015610133575f5ffd5b5061009d61014236600461031a565b610166565b348015610152575f5ffd5b5061009d6101613660046102fa565b610201565b5f546001600160a01b031633146101b05760405162461bcd60e51b81526020600482015260096024820152684f6e6c792062616e6b60b81b60448201526064015b60405180910390fd5b5f6064600154836101c19190610356565b6101cb9190610373565b6001600160a01b0384165f908152600260205260408120805492935083929091906101f7908490610392565b9091555050505050565b5f546001600160a01b031633146102465760405162461bcd60e51b81526020600482015260096024820152684f6e6c792062616e6b60b81b60448201526064016101a7565b6001600160a01b0381165f90815260026020526040902054806102995760405162461bcd60e51b815260206004820152600b60248201526a139bc81a5b9d195c995cdd60aa1b60448201526064016101a7565b6001600160a01b0382165f818152600260205260408082208290555183156108fc0291849190818181858888f193505050501580156102da573d5f5f3e3d5ffd5b505050565b80356001600160a01b03811681146102f5575f5ffd5b919050565b5f6020828403121561030a575f5ffd5b610313826102df565b9392505050565b5f5f6040838503121561032b575f5ffd5b610334836102df565b946020939093013593505050565b634e487b7160e01b5f52601160045260245ffd5b808202811582820484141761036d5761036d610342565b92915050565b5f8261038d57634e487b7160e01b5f52601260045260245ffd5b500490565b8082018082111561036d5761036d61034256fea2646970667358221220cf609f286de226fb006900570799c2282eee67cc48e3aad5571d22f1f6af857d64736f6c634300081c0033",
  "linkReferences": {},
  "deployedLinkReferences": {},
  "immutableReferences": {},
  "inputSourceName": "project/contracts/InterestCalculator.sol",
  "buildInfoId": "solc-0_8_28-348c86b0c0f30763198f21bfa475e4f519d134e9"
}